:100000000C9462000C948A000C948A000C948A0070
:100010000C948A000C948A000C948A000C948A0038
:100020000C948A000C948A000C948A000C948A0028
:100030000C948A000C948A000C948A000C948A0018
:100040000C9409060C948A000C9479060C945306BF
:100050000C948A000C948A000C948A000C948A00F8
:100060000C94AB060C948A000000000024002700CA
:100070002A000000000023002600290000000000E4
:10008000250028002B0004040404040404040202D4
:100090000202020203030303030301020408102007
:1000A0004080010204081020010204081020000012
:1000B0000008000201000003040700000000000027
:1000C0000000CA0711241FBECFEFD8E0DEBFCDBFAE
:1000D00011E0A0E0B1E0E6EEFAE102C005900D9279
:1000E000A23EB107D9F723E0A2EEB1E001C01D9214
:1000F000A836B207E1F710E0C2E6D0E004C02197CD
:10010000FE010E946B0DC136D107C9F70E94140889
:100110000C94710D0C94000090E0FC01E255FF4F2F
:100120002491FC01E656FF4F3491FC01EA57FF4F42
:10013000E491EE23C9F0222339F0233001F1A8F431
:10014000213019F1223029F1F0E0EE0FFF1FE458C1
:10015000FF4FA591B4918FB7F894EC91611126C02F
:1001600030953E233C938FBF08952730A9F0283067
:10017000C9F0243049F7809180008F7D03C08091C1
:1001800080008F7780938000DFCF84B58F7784BD28
:10019000DBCF84B58F7DFBCF8091B0008F778093CC
:1001A000B000D2CF8091B0008F7DF9CF3E2BDACF57
:1001B0003FB7F8948091A1029091A202A091A3026E
:1001C000B091A40226B5A89B05C02F3F19F0019657
:1001D000A11DB11D3FBFBA2FA92F982F8827BC01A1
:1001E000CD01620F711D811D911D42E0660F771FC9
:1001F000881F991F4A95D1F708958F929F92AF92C9
:10020000BF92CF92DF92EF92FF924B015C010E946E
:10021000D8006B017C010E94D8006C197D098E0901
:100220009F09683E734081059105A8F321E0821A79
:100230009108A108B10888EEC80E83E0D81EE11C21
:10024000F11C81149104A104B10429F7FF90EF90EF
:10025000DF90CF90BF90AF909F908F9008950895BA
:100260000895DC01ED91FC910190F081E02D09945D
:10027000AF92BF92CF92DF92EF92FF920F931F93B4
:10028000CF93DF936C017B018B01040F151FEB01F2
:100290005E01AE18BF08C017D10759F06991D601A9
:1002A000ED91FC910190F081E02DC6010995892B1B
:1002B00079F7C501DF91CF911F910F91FF90EF90DA
:1002C000DF90CF90BF90AF900895FC01538D448D87
:1002D000252F30E0842F90E0821B930B541710F0F1
:1002E000CF96089501970895FC01918D828D9817FE
:1002F00061F0A28DAE0FBF2FB11D5D968C91928DD6
:100300009F5F9F73928F90E008958FEF9FEF089506
:10031000FC01918D828D981731F0828DE80FF11DCF
:10032000858D90E008958FEF9FEF0895FC01918DEA
:10033000228D892F90E0805C9F4F821B91098F73E3
:100340009927089585EA92E00E94960121E0892B81
:1003500009F420E0822F089580E090E0892B29F0B5
:100360000E94A20181110C9400000895FC01A48D4B
:10037000A80FB92FB11DA35ABF4F2C91848D90E0C7
:1003800001968F739927848FA689B7892C93A089AA
:10039000B1898C91837080648C93938D848D981334
:1003A00006C00288F389E02D80818F7D80830895C7
:1003B000EF92FF920F931F93CF93DF93EC0181E0B5
:1003C000888F9B8D8C8D98131AC0E889F98980815C
:1003D00085FF15C09FB7F894EE89FF896083E8898F
:1003E000F98980818370806480839FBF81E090E081
:1003F000DF91CF911F910F91FF90EF900895F62E0E
:100400000B8D10E00F5F1F4F0F731127E02E8C8DA7
:100410008E110CC00FB607FCFACFE889F9898081EC
:1004200085FFF5CFCE010E94B601F1CFEB8DEC0F29
:10043000FD2FF11DE35AFF4FF0829FB7F8940B8F09
:10044000EA89FB8980818062CFCFCF93DF93EC0173
:10045000888D8823B9F0AA89BB89E889F9898C91AC
:1004600085FD03C0808186FD0DC00FB607FCF7CF68
:100470008C9185FFF2CF808185FFEDCFCE010E9468
:10048000B601E9CFDF91CF9108950895209123021D
:10049000260F3327331F21323105ECF420916C02F3
:1004A000FC0190E080E0243069F082E00895A091A2
:1004B00023022191AC014D5F5D4FA40FB52FB11DFB
:1004C0002C930196861798F380912302680F60930E
:1004D000230280E0089581E0089510926C0281E08B
:1004E00080936B021092460261E082E10E948C00D0
:1004F00061E083E10E948C00E9EBF0E080818E7F77
:10050000808380818D7F808388E48093B80085E438
:100510008093BC000895CF93DF9391E09093020203
:100520008823B9F0C091B800D091BA008091BC0086
:100530008A7B8093BC0060E082E10E948C0060E0D6
:1005400083E10E948C000E946D02D093BA00C09398
:10055000B800DF91CF9108950895E0919B028091BA
:100560009A02E81730F4F0E0EE51FE4F808190E0FF
:1005700008958FEF9FEF089590919B0280919A02CA
:100580002FEF3FEF981748F4E92FF0E0EE51FE4FC0
:10059000208130E09F5F90939B02C9010895809174
:1005A0009A0290919B02891B990B0895CF92DF923A
:1005B000EF92FF920F931F93CF93DF937C01CB01B8
:1005C0008A0120917202222389F0EB016B01C40E93
:1005D000D51ECC15DD0569F06991D701ED91FC912F
:1005E0000190F081E02DC7010995F3CF642F0E949F
:1005F0004602C801DF91CF911F910F91FF90EF90BC
:10060000DF90CF900895CF93DF931F92CDB7DEB7E1
:100610006983209172022223F9F0209198022032FE
:1006200058F021E030E0FC013383228390E080E049
:100630000F90DF91CF91089580919902E82FF0E01B
:10064000ED58FD4F998190838F5F8093990280933D
:10065000980281E090E0ECCF61E0CE0101960E942B
:100660004602F7CFCF92DF92EF92FF920F931F9344
:10067000CF93DF93FC01C48121E020937202C093E9
:10068000930210929902109298028385682B82E45B
:1006900093E00E940303D0919802D13208F092C0F7
:1006A0000E94D8006B017C0180916C02811165C0B1
:1006B00082E080936C0281E080936B028FEF8093E5
:1006C0006A0210926902D0936802A3E7B2E0E8E4FC
:1006D000F2E080E0D81385C0109247028091470273
:1006E000CC0FC82BC093470280914602813009F09D
:1006F0007CC0109246020E94D8006B017C01809160
:1007000047028093BB0080916E0290916F02A0918E
:100710007002B0917102892B8A2B8B2B99F00E9469
:10072000D80000916E0210916F02209170023091FA
:1007300071026C197D098E099F0906171707280792
:100740003907E0F18091BC0083FDD9CF85EC80931F
:10075000BC000E94D8006B017C0180916C02823049
:1007600009F445C080916A028F3F61F180916A026D
:10077000803241F180916A0225C080916E02909191
:100780006F02A0917002B0917102892B8A2B8B2B82
:1007900009F48ACF0E94D80000916E0210916F0276
:1007A00020917002309171026C197D098E099F09A8
:1007B000061717072807390708F076CF80916D02D2
:1007C0000E948B021092990210929802109272026B
:1007D000DF91CF911F910F91FF90EF90DF90CF901D
:1007E00008959D9191938F5F75CF85EEB0CF8091E5
:1007F0006E0290916F02A0917002B0917102892BEC
:100800008A2B8B2B09F4A9CF0E94D80000916E028D
:1008100010916F0220917002309171026C197D0964
:100820008E099F09061717072807390708F095CF83
:10083000C5CF90E080E008950F931F93CF938C0174
:10084000C62F0E9432036C2F6460C8010E943203DD
:100850006C2F6B7FC8010E94320383EC90E00197FC
:10086000F1F7CF911F910F9108950F931F93CF939D
:10087000DF938C01D62FC42F607F642B0E941C0451
:1008800080E1D89FB00111246C2BC801DF91CF917A
:100890001F910F910C941C04CF93DF93CDB7DEB75B
:1008A00028970FB6F894DEBF0FBECDBF98E0E0E00A
:1008B000F1E0DE01119601900D929A95E1F7909189
:1008C0005603981708F48FEF90E0880F991F21E0E6
:1008D00030E02C0F3D1F820F931FFC016081606888
:1008E00040E08EE493E028960FB6F894DEBF0FBE8A
:1008F000CDBFDF91CF910C94350440E061E08EE4F0
:1009000093E00E9435048BE39FE10197F1F708958E
:1009100041E00E94350481E090E00895FB010190E0
:100920000020E9F73197AF01461B570BDC01ED9131
:10093000FC910280F381E02D09948F929F92AF92F7
:10094000BF92EF92FF920F931F93CF93DF93CDB798
:10095000DEB7A1970FB6F894DEBF0FBECDBF7C0106
:10096000FA01CB0119A2223008F42AE08E010F5DB2
:100970001F4F822E912CB12CA12CBF01A5019401F7
:100980000E94490DF901CA016A300CF5605DD80179
:100990006E938D01232B242B252B79F790E080E09B
:1009A000109721F0BD01C7010E948E04A1960FB6D9
:1009B000F894DEBF0FBECDBFDF91CF911F910F9195
:1009C000FF90EF90BF90AF909F908F900895695CDB
:1009D000DECF2F923F924F925F926F927F928F92D3
:1009E0009F92AF92BF92CF92DF92EF92FF921F93AE
:1009F000CF93DF93EC016A017B01722EAB0196016C
:100A0000CB01B6010E94440D68E371E0811126C05C
:100A100046015701E894B7F82FEF3FEF4FE75FE744
:100A2000C501B4010E94440D81110CC02FEF3FEFAE
:100A30004FE75FE7C501B4010E947A0B6CE371E0F8
:100A4000181664F02FEF3FEF4FE75FE4C701B601E0
:100A50000E94D20C1816B4F460E471E0CE01DF916C
:100A6000CF911F91FF90EF90DF90CF90BF90AF900C
:100A70009F908F907F906F905F904F903F902F90BE
:100A80000C948E042FEF3FEF4FE75FECC701B601E8
:100A90000E947A0B87FDE0CF20E030E0A901C7017A
:100AA000B6010E947A0B312C212C87FF09C06DE220
:100AB000CE010E9431011C01F7FAF094F7F8F0948E
:100AC00010E060E070E080E09FE3711641F020E00C
:100AD00030E040E251E40E947F0B1F5FF6CFA70198
:100AE00096010E940E0B2B013C010E94F10B4B0161
:100AF0005C012AE0BC01A401CE010E949D047C019E
:100B0000E20CF31C1123C1F1C501B4010E94200CB9
:100B10009B01AC01C301B2010E940D0B4B015C01B2
:100B20006EE2CE010E943101E80EF91E115020F153
:100B300020E030E040E251E4C501B4010E94D70C4E
:100B40002B013C010E94F10B4B01B12CA12C2AE09E
:100B5000B501A401CE010E949D04E80EF91EC50155
:100B6000B4010E94200C9B01AC01C301B2010E94A0
:100B70000D0B4B015C01DACFC701DF91CF911F91C3
:100B8000FF90EF90DF90CF90BF90AF909F908F90AD
:100B90007F906F905F904F903F902F9008950C94AE
:100BA0008E0485ED8093BC0080916E0290916F025F
:100BB000A0917002B09171020796A11DB11D23E0B2
:100BC000B695A795979587952A95D1F72091BC0062
:100BD00024FD03C010926C02089540916E02509162
:100BE0006F026091700270917102452B462B472B6A
:100BF00069F30097A105B10541F02AE22A95F1F7C2
:100C000000C00197A109B109E1CF80916D020C9458
:100C10008B021F920F920FB60F9211242F933F93C6
:100C20008F939F93AF93BF9380919D0290919E026B
:100C3000A0919F02B091A00230919C0223E0230F6B
:100C40002D3758F50196A11DB11D20939C0280936C
:100C50009D0290939E02A0939F02B093A002809168
:100C6000A1029091A202A091A302B091A4020196C8
:100C7000A11DB11D8093A1029093A202A093A30293
:100C8000B093A402BF91AF919F918F913F912F910B
:100C90000F900FBE0F901F90189526E8230F029615
:100CA000A11DB11DD2CF1F920F920FB60F9211242A
:100CB0002F933F934F935F936F937F938F939F9364
:100CC000AF93BF93EF93FF9385EA92E00E94B60142
:100CD000FF91EF91BF91AF919F918F917F916F9114
:100CE0005F914F913F912F910F900FBE0F901F90EA
:100CF00018951F920F920FB60F9211242F938F9376
:100D00009F93EF93FF93E091B502F091B60280813B
:100D1000E091BB02F091BC0282FD1BC090818091EA
:100D2000BE028F5F8F732091BF02821741F0E09166
:100D3000BE02F0E0EB55FD4F958F8093BE02FF9110
:100D4000EF919F918F912F910F900FBE0F901F9059
:100D500018958081F4CF1F920F920FB60F92112435
:100D60002F933F934F935F936F937F938F939F93B3
:100D7000AF93BF93EF93FF938091B900887F803644
:100D800009F44AC0F0F5883209F4A7C018F580319B
:100D900009F49BC0B8F4882309F4F9C0883009F439
:100DA00094C0FF91EF91BF91AF919F918F917F91EF
:100DB0006F915F914F913F912F910F900FBE0F90C8
:100DC0001F901895883109F488C0803251F78093BC
:100DD0006A0214C0803409F49DC040F48033B9F332
:100DE0008833F9F680936A0285ECB0C0803509F447
:100DF00085C0883509F496C0883499F60E94D105DB
:100E0000D0CF883909F48CC038F5883729F050F4F0
:100E1000883611F0803729F683E080936C021092B7
:100E2000450257C0883809F47BC0803919F08038F2
:100E300009F0B7CF80914502803208F071C0E0918F
:100E4000450281E08E0F809345028091BB00F0E067
:100E5000EB5DFD4F80833DC0803B39F0E0F4803A8C
:100E600009F479C0883A09F09CCF84E080936C0241
:100E70001092240210922302E0919602F0919702C0
:100E800009958091230281110FC081E08093230294
:100E90001092030209C0803C09F4A6CF883C09F4F3
:100EA000A3CF883B09F07DCFE091240281E08E0F33
:100EB00080932402F0E0ED5FFD4F80818093BB00C2
:100EC000909124028091230229C08091470280934F
:100ED000BB0085EC8093BC0064CF90916902809147
:100EE0006802981758F5E091690281E08E0F8093AF
:100EF0006902F0E0E85BFD4F8081E9CFE091690293
:100F000081E08E0F809369028091BB00F0E0E85B86
:100F1000FD4F808390916902809168029817C8F212
:100F200085E8D8CFE091690281E08E0F8093690255
:100F30008091BB00F0E0E85BFD4F808380916B0205
:100F400081115CCF81E08093460284EA8093BC00EB
:100F500010926C0226CF85EC8093BC0010926C023C
:100F600080914502803230F4E0914502F0E0EB5D83
:100F7000FD4F10826091450270E0E0919402F09183
:100F8000950285E292E00995109245020ACF1092EF
:100F90006A0234CFE5EAF2E01382128288EE93E02F
:100FA000A0E0B0E084839583A683B7832CE031E092
:100FB0003183208325EC30E03587248724EC30E032
:100FC0003787268720EC30E0318B208B21EC30E016
:100FD000338B228B22EC30E0358B248B26EC30E0F7
:100FE000378B268B118E128E138E148EE2E4F3E073
:100FF0001382128284839583A683B7838EE191E066
:101000009183808310926703EEE4F3E013821282EF
:1010100080E391E09183808387E2848380E181870C
:1010200082E0828713860895789484B5826084BDB7
:1010300084B5816084BD85B5826085BD85B58160DC
:1010400085BD80916E00816080936E00109281005A
:101050008091810082608093810080918100816015
:1010600080938100809180008160809380008091D6
:10107000B10084608093B1008091B0008160809362
:10108000B00080917A00846080937A0080917A0029
:10109000826080937A0080917A00816080937A00E8
:1010A00080917A00806880937A001092C100E0916C
:1010B000B502F091B60282E08083E091B102F09136
:1010C000B2021082E091B302F091B4028FEC8083FF
:1010D0001092BD02E091B902F091BA0286E08083DD
:1010E000E091B702F091B802808180618083E09145
:1010F000B702F091B802808188608083E091B702E6
:10110000F091B802808180688083E091B702F0910D
:10111000B80280818F7D808310929B0210929A0288
:1011200010929902109298020E946D028FE291E053
:10113000909397028093960280E391E090939502BA
:10114000809394021092530380915803823018F0D8
:1011500098E0909353038093560362E370E080E03D
:1011600090E00E94FD00609159038EE493E00E949C
:10117000320368EE73E080E090E00E94FD0060E3DF
:101180008EE493E00E941C04CBE4D6E4CE010197E8
:10119000F1F760E38EE493E00E941C042197F1F7DD
:1011A00060E38EE493E00E941C0483E592E00197E3
:1011B000F1F760E28EE493E00E941C046091530317
:1011C000606240E08EE493E00E94350484E0809306
:1011D000540340E06CE08EE493E00E9435040E94EA
:1011E0007D0482E08093550340E066E08EE493E066
:1011F0000E94350440E062E08EE493E00E943504F2
:101200008BE39FE10197F1F788E08093590360E059
:101210008EE493E00E9432030E947D0480E00E94ED
:101220004C0464E471E08EE493E00E94CF056CED21
:1012300075E080E090E00E94FD000E947D040CE9D2
:1012400010E080E9482E55245394612C712CD0E095
:101250002D2ED0E03D2E80916703882309F0F8946D
:10126000F801D490E8E8F0E08491E82FF0E0EE0F88
:10127000FF1FEE58FF4FE590F490F8014491E8E825
:10128000F0E08491882399F090E0880F991FFC0189
:10129000E859FF4FA591B491FC01E458FF4F259107
:1012A00034918FB7F8949C91492B4C938FBF60E099
:1012B00082E00E948C008BE99FE00197F1F761E0EA
:1012C00082E00E948C00F8014491E8E8F0E084910B
:1012D0008823C1F090E0880F991FFC01E859FF4F67
:1012E000A591B491FC01E458FF4F259134919FB72B
:1012F000F8948C91409584238C93E901888148234C
:1013000048839FBF80E293E0F70120812D2129F0DF
:101310000197D1F74DEFB42E52C080E991E0E7017B
:1013200028812D2129F40197D1F73CEFB32E47C036
:1013300080E991E0F70120812D2151F00197D1F74B
:101340002BEFB22E3CC06B2DA1110DC0B12C37C0BC
:10135000C12CB0E0E0E830E020E080E991E040E935
:1013600051E060E0A8E2E701B880BD2021F56623E6
:1013700011F1A33208F4CBC08417950708F4AC012F
:10138000C301B201641B750B81099109F2E09595C7
:10139000879577956795FA95D1F79B01E69541F486
:1013A000EC2DF0E0E65AFC4FB087C394B0E0E0E8E3
:1013B000A15080E991E0019731F65EEFB52E809162
:1013C0006703882309F07894809162038370E82E84
:1013D00080936203A0906403DA2DD378DD2ED0933E
:1013E0006403F0906303682F70E0762F66276F0D1B
:1013F000711D072E000C880B990B0E94220C2DECFE
:101400003CEC4CEC5DE30E94D70C60935A03709364
:101410005B0380935C0390935D03C09065036A2D2A
:10142000637070E0762F66276C0D711D6115710574
:1014300009F076C010925E0310925F031092600371
:1014400010926103FC0CEF0CDE0C80916603D81641
:1014500011F0BB24BA9465E571E085EA92E00E9440
:10146000CF05CB2C0B2C000CDD08EE08FF082AE082
:1014700040E050E0BA01BB2069F06DE285EA92E0FD
:101480000E94310144275527BA014C195D096E09A4
:101490007F092AE085EA92E00E949D0463E671E0FC
:1014A00085EA92E00E948E04BB2009F452C066E6F1
:1014B00071E085EA92E00E948E0463E671E085EABD
:1014C00092E00E948E0480E00E944C0466E871E085
:1014D0008EE493E00E94CF0581E00E944C0467E90E
:1014E00071E08EE493E00E94CF0560ED77E080E04C
:1014F00090E00E94FD002114310409F4ACCE0E945A
:10150000A201882309F4A7CE0E940000A0CEBA0150
:10151000621B730B6817790708F440CFBE2B3ECFD0
:10152000072E000C880B990B0E94220C2DEC3CEC32
:101530004CEC5DE30E94D70CD7FD09C060935E03BD
:1015400070935F0380936003909361037BCF905807
:10155000F5CFC0905A03D0905B03E0905C03F0900D
:101560005D0380905E0390905F03A0906003B09055
:10157000610368EA71E085EA92E00E94CF0522E00B
:10158000B501A40185EA92E00E94E90466EB71E0EE
:1015900085EA92E00E94CF0522E0B701A60185EA24
:1015A00092E00E94E90466EC71E085EA92E00E9414
:1015B0008E0463E671E085EA92E00E948E0480E08A
:1015C0000E944C0469EC71E08EE493E00E94CF0528
:1015D00022E0B501A4018EE493E00E94E9046FEDDE
:1015E0008EE493E00E94310160ED71E08EE493E0BF
:1015F0000E94CF0581E00E944C0465ED71E08EE40D
:1016000093E00E94CF0522E0B701A6018EE493E0AB
:101610000E94E9046CED71E064CF5058BB27AA2703
:101620000E94250B0C94980C0E948A0C38F00E94A2
:10163000910C20F039F49F3F19F426F40C94870C98
:101640000EF4E095E7FB0C94810CE92F0E94A90CA5
:1016500058F3BA17620773078407950720F079F4E7
:10166000A6F50C94CB0C0EF4E0950B2EBA2FA02D02
:101670000B01B90190010C01CA01A0011124FF273F
:10168000591B99F0593F50F4503E68F11A16F0403A
:10169000A22F232F342F4427585FF3CF4695379539
:1016A0002795A795F0405395C9F77EF41F16BA0BFE
:1016B000620B730B840BBAF09150A1F0FF0FBB1FAC
:1016C000661F771F881FC2F70EC0BA0F621F731FF5
:1016D000841F48F4879577956795B795F7959E3F52
:1016E00008F0B0CF9395880F08F09927EE0F9795E3
:1016F000879508950E945D0C08F481E008950E948A
:10170000930B0C94980C0E94910C58F00E948A0C38
:1017100040F029F45F3F29F00C94810C51110C9496
:10172000CC0C0C94870C0E94A90C68F39923B1F39C
:10173000552391F3951B550BBB27AA2762177307F7
:10174000840738F09F5F5F4F220F331F441FAA1F8B
:10175000A9F335D00E2E3AF0E0E832D09150504047
:10176000E695001CCAF72BD0FE2F29D0660F771FF5
:10177000881FBB1F261737074807AB07B0E809F0DB
:10178000BB0B802DBF01FF2793585F4F3AF09E3F60
:10179000510578F00C94810C0C94CC0C5F3FE4F371
:1017A000983ED4F3869577956795B795F7959F5FA3
:1017B000C9F7880F911D9695879597F90895E1E0EF
:1017C000660F771F881FBB1F621773078407BA074E
:1017D00020F0621B730B840BBA0BEE1F88F7E095A9
:1017E00008950E94B10C88F09F5798F0B92F99275F
:1017F000B751B0F0E1F0660F771F881F991F1AF0FC
:10180000BA95C9F714C0B13091F00E94CB0CB1E089
:1018100008950C94CB0C672F782F8827B85F39F088
:10182000B93FCCF3869577956795B395D9F73EF494
:1018300090958095709561957F4F8F4F9F4F08953C
:10184000E89409C097FB3EF490958095709561955A
:101850007F4F8F4F9F4F9923A9F0F92F96E9BB2710
:101860009395F695879577956795B795F111F8CF8C
:10187000FAF4BB0F11F460FF1BC06F5F7F4F8F4FF7
:101880009F4F16C0882311F096E911C0772321F0ED
:101890009EE8872F762F05C0662371F096E8862F85
:1018A00070E060E02AF09A95660F771F881FDAF7DC
:1018B000880F9695879597F90895990F0008550F09
:1018C000AA0BE0E8FEEF16161706E807F907C0F0C6
:1018D00012161306E407F50798F0621B730B840BCE
:1018E000950B39F40A2661F0232B242B252B21F4A8
:1018F00008950A2609F4A140A6958FEF811D811D48
:10190000089597F99F6780E870E060E008959FEF81
:1019100080EC089500240A94161617061806090686
:10192000089500240A941216130614060506089555
:10193000092E0394000C11F4882352F0BB0F40F4DD
:10194000BF2B11F460FF04C06F5F7F4F8F4F9F4F1D
:10195000089557FD9058440F551F59F05F3F71F09F
:101960004795880F97FB991F61F09F3F79F0879506
:101970000895121613061406551FF2CF4695F1DF8F
:1019800008C0161617061806991FF1CF869571051F
:10199000610508940895E894BB2766277727CB0153
:1019A00097F908950E945D0C08F48FEF08950E9446
:1019B000EA0C0C94980C0E948A0C38F00E94910C4E
:1019C00020F0952311F00C94810C0C94870C1124B9
:1019D0000C94CC0C0E94A90C70F3959FC1F3950F49
:1019E00050E0551F629FF001729FBB27F00DB11DA3
:1019F000639FAA27F00DB11DAA1F649F6627B00D33
:101A0000A11D661F829F2227B00DA11D621F739F1B
:101A1000B00DA11D621F839FA00D611D221F749F29
:101A20003327A00D611D231F849F600D211D822F70
:101A3000762F6A2F11249F5750409AF0F1F0882397
:101A40004AF0EE0FFF1FBB1F661F771F881F9150C4
:101A50005040A9F79E3F510580F00C94810C0C94E6
:101A6000CC0C5F3FE4F3983ED4F386957795679569
:101A7000B795F795E7959F5FC1F7FE2B880F911DEE
:101A80009695879597F908950E945D0C880B990BA0
:101A90000895A1E21A2EAA1BBB1BFD010DC0AA1FAF
:101AA000BB1FEE1FFF1FA217B307E407F50720F0C7
:101AB000A21BB30BE40BF50B661F771F881F991F42
:101AC0001A9469F760957095809590959B01AC018B
:101AD000BD01CF010895EE0FFF1F0590F491E02D99
:061AE0000994F894FFCF09
:101AE600000040001400540000000000D801380136
:101AF60065012502960174018801000000000303B8
:101B0600D6021904AC02CF02BC02AD0200000000EE
:101B160088043801190445026E616E00696E66001C
:101B26006F766600456E76204D6F6E69746F722013
:101B3600496E6974005265616420726573756C74D0
:101B46003A20000D0A004661696C656420746F20B6
:101B5600726561642066726F6D2044485420736517
:101B66006E736F72210053656E736F7220457272C9
:101B76006F722020202000436865636B20776972AE
:101B8600696E67202020200054656D70657261744F
:101B96007572653A2000204320202048756D6964DF
:101BA6006974793A200020250054656D703A20004A
:101BB600432020200048756D3A2020002025202053
:021BC6002000FD
:00000001FF
