:020000040000FA
:100000000C9406010C942E010C942E010C941C06E9
:100010000C941C060C941C060C942E010C942E01BE
:100020000C942E010C942E010C942E010C942E0194
:100030000C942E010C942E010C942E010C942E0184
:100040000C947A050C942E010C94EA050C94C405CA
:100050000C942E010C942E010C942E010C942E0164
:100060000C942E010C942E015B574946495D204D9E
:100070006F64756C6520636F6E6E65637465642074
:10008000262072656164792E003D3D3D3D3D3D3D3C
:100090003D3D3D3D3D3D3D3D3D3D3D3D3D3D3D3D90
:1000A0003D3D3D3D3D3D3D3D3D3D3D3D3D3D3D3D80
:1000B0003D3D3D3D3D3D3D0020496F5420436C6F2B
:1000C0007564205365637572697479204E6F646539
:1000D00020496E697469616C697A696E672E2E2E8B
:1000E00020202020202020000A3D3D3D3D3D3D3D7B
:1000F0003D3D3D3D3D3D3D3D3D3D3D3D3D3D3D3D30
:100100003D3D3D3D3D3D3D3D3D3D3D3D3D3D3D3D1F
:100110003D3D3D3D3D3D3D005B434C4F55445D20E5
:1001200054656C656D657472792073747265616D68
:10013000207075626C6973686564207375636365AC
:10014000737366756C6C7921005B4552524F525D3A
:100150002054435020436F6E6E656374696F6E2048
:100160004661696C65642E005B5345435552455D9D
:10017000005B494E54525544455220444554454332
:10018000544544215D0020636D207C2053746174CC
:1001900075733A20005B53454E534F525D204C69B6
:1001A00076652044697374616E63653A20000000CF
:1001B0000000240027002A000000000800020100BF
:1001C0000003040700000000000000000000000021
:1001D00023002600290000000000250028002B0035
:1001E00004040404040404040202020202020303DD
:1001F00003030303010204081020408001020408E5
:100200001020010204081020D906910B11241FBEF2
:10021000CFEFD8E0DEBFCDBF23E0A8E1B2E001C060
:100220001D92A734B207E1F712E0A0E0B1E0E0EAE6
:10023000FFE102C005900D92A831B107D9F711E096
:10024000C5E0D1E004C02197FE010E94B10DC43089
:10025000D107C9F70E94A1070C94C30F0C940000AA
:1002600090E0FC01E854FE4F2491FC01EC50FE4F5D
:100270003491FC01E052FE4FE491EE23C9F02223B9
:1002800039F0233001F1A8F4213019F1223029F19D
:10029000F0E0EE0FFF1FEA52FE4FA591B4918FB729
:1002A000F894EC91611126C030953E233C938FBFAA
:1002B00008952730A9F02830C9F0243049F78091FB
:1002C00080008F7D03C0809180008F7780938000B5
:1002D000DFCF84B58F7784BDDBCF84B58F7DFBCF37
:1002E0008091B0008F778093B000D2CF8091B00022
:1002F0008F7DF9CF3E2BDACFCF93DF9390E0FC01D7
:10030000EC50FE4F249180529E4FFC018491882333
:10031000D1F090E0880F991FFC01E255FE4FA591A6
:10032000B491FC01EA52FE4FC591D49161110EC007
:100330009FB7F8948C91E22FE0958E238C932881BF
:10034000E223E8839FBFDF91CF9108958FB7F894A0
:10035000EC91E22BEC938FBFF6CF3FB7F8948091EE
:10036000650290916602A0916702B091680226B57D
:10037000A89B05C02F3F19F00196A11DB11D3FBFDD
:10038000BA2FA92F982F8827BC01CD01620F711DAC
:10039000811D911D42E0660F771F881F991F4A95A6
:1003A000D1F708958F929F92AF92BF92CF92DF9232
:1003B000EF92FF924B015C010E94AD016B017C0149
:1003C0000E94AD016C197D098E099F09683E73403A
:1003D00081059105A8F321E0821A9108A108B108CE
:1003E00088EEC80E83E0D81EE11CF11C8114910434
:1003F000A104B10429F7FF90EF90DF90CF90BF9058
:10040000AF909F908F900895AF92BF92CF92DF925E
:10041000EF92FF920F931F93CF93DF936C017B01B9
:100420008B01040F151FEB015E01AE18BF08C0174A
:10043000D10759F06991D601ED91FC910190F081BD
:10044000E02DC6010995892B79F7C501DF91CF9180
:100450001F910F91FF90EF90DF90CF90BF90AF90E2
:100460000895FC01538D448D252F30E0842F90E0BA
:10047000821B930B541710F0CF960895019708959F
:10048000FC01918D828D981761F0A28DAE0FBF2F68
:10049000B11D5D968C91928D9F5F9F73928F90E0BE
:1004A00008958FEF9FEF0895FC01918D828D98172D
:1004B00031F0828DE80FF11D858D90E008958FEF6A
:1004C0009FEF0895FC01918D228D892F90E0805C33
:1004D0009F4F821B91098F739927089589E692E0B7
:1004E0000E94620221E0892B09F420E0822F089506
:1004F00080E090E0892B29F00E946E0281110C941B
:1005000000000895FC01A48DA80FB92FB11DA35AB6
:10051000BF4F2C91848D90E001968F739927848F23
:10052000A689B7892C93A089B1898C918370806446
:100530008C93938D848D981306C00288F389E02DE7
:1005400080818F7D80830895EF92FF920F931F9398
:10055000CF93DF93EC0181E0888F9B8D8C8D981376
:100560001AC0E889F989808185FF15C09FB7F89482
:10057000EE89FF896083E889F989808183708064CE
:1005800080839FBF81E090E0DF91CF911F910F9119
:10059000FF90EF900895F62E0B8D10E00F5F1F4F28
:1005A0000F731127E02E8C8D8E110CC00FB607FC37
:1005B000FACFE889F989808185FFF5CFCE010E94C5
:1005C0008202F1CFEB8DEC0FFD2FF11DE35AFF4FAF
:1005D000F0829FB7F8940B8FEA89FB898081806253
:1005E000CFCF0F931F93CF93DF938C01D0E0C0E068
:1005F000F801EC0FFD1F6491662341F089E692E05B
:100600000E94A402892B11F02196F2CFCE01DF9136
:10061000CF911F910F910895CF93DF93EC01888DB7
:100620008823B9F0AA89BB89E889F9898C9185FD6D
:1006300003C0808186FD0DC00FB607FCF7CF8C91FB
:1006400085FFF2CF808185FFEDCFCE010E9482022F
:10065000E9CFDF91CF91089520915A0230915B024A
:100660002817390771F49091580280915902981710
:1006700041F0E0915802F0E0E85EFD4F808190E0AB
:1006800008958FEF9FEF08950895EF92FF920F93D3
:100690001F93CF93DF93DC015C96ED90FC905D9708
:1006A000E114F10479F481E090E013969C938E9329
:1006B000129790E080E0DF91CF911F910F91FF9012
:1006C000EF9008955196ED91FC91529750968C9130
:1006D0005097982F90950FB75E962C915E97122F9A
:1006E000127021FD6095F8942081112319F1282BB7
:1006F0002083E7012197F1F728E0462F50E0308171
:1007000060FF1AC0382B3083E7012197F1F7BA0157
:1007100075956795215089F7112381F08081892390
:1007200080830FBF5C968D919C910197F1F781E0DA
:1007300090E0C1CF2923DCCF3923E5CF9081892BED
:10074000EFCF20915A0230915B022817390761F4EC
:10075000809159022091580290E0805C9F4F821B4B
:1007600091098F739927089590E080E00895209172
:100770005A0230915B0228173907B9F49091580258
:1007800080915902981789F0E0915802F0E0E85EF4
:10079000FD4F80812091580230E02F5F3F4F2F7333
:1007A00033272093580290E008958FEF9FEF08952C
:1007B00090E080E00895FB0101900020E9F7319777
:1007C000AF01461B570BDC01ED91FC910280F381D8
:1007D000E02D0994CF93DF930E94F102EC016BEFBF
:1007E00071E089E692E00E94DB038C0F9D1FDF9190
:1007F000CF9108950F931F93CF93DF93EC018881DE
:100800009981009759F02A813B812617370730F0EC
:1008100081E0DF91CF911F910F9108958B016F5F60
:100820007F4F0E94DC0E009759F0998388831B83C9
:100830000A832C813D81232B59F7FC011082E8CFDC
:1008400080E0E7CFEF92FF920F931F93CF93DF9358
:100850006115710541F480E0DF91CF911F910F91F7
:10086000FF90EF90089541155105B1F07B01EC0127
:100870000C811D81040F151FB8010E94FA03882303
:1008800051F3288139818C819D81B701820F931F9B
:100890000E94A20F1D830C8381E0DECFCF93DF93F4
:1008A000EC0188819981009711F00E94530E198202
:1008B00018821D821C821B821A82DF91CF910895BB
:1008C000CF93DF93EC01FB0101900020E9F7319712
:1008D000AF01461B570B0E942204811103C0CE01B9
:1008E0000E944E04CE01DF91CF910895CF93DF9304
:1008F000EC01FB0144815581608171810E942204D9
:10090000811103C0CE010E944E04CE01DF91CF9130
:100910000895EF92FF920F931F93CF93DF93EC0113
:100920007B018A01BA010E94FA0381110BC0CE013A
:100930000E944E04CE01DF91CF911F910F91FF9045
:10094000EF9008951D830C83B701888199810E94DF
:10095000A20FF0CFFB0101900020E9F73197AF0122
:10096000461B570B0C948904FB01DC0111961C9269
:100970001E9213961C921E92129715961C921E920E
:1009800014978617970749F0608171816115710589
:1009900021F0448155810C9489040895FC01118251
:1009A00010821382128215821482FB0101900020B2
:1009B000E9F73197AF01461B570B0C948904FC01F2
:1009C00080819181009711F00C94530E08954F92FD
:1009D0005F926F927F928F929F92AF92BF92EF92AF
:1009E000FF920F931F93CF93DF93CDB7DEB7289776
:1009F0000FB6F894DEBF0FBECDBF2A013B017901CF
:100A0000FC01448155816081718184E293E00E9400
:100A100004026BEF71E084E293E00E94DB038FB786
:100A2000F8948090610290906202A0906302B0906E
:100A300064028FBF6DEF71E0CE0101960E94CE047B
:100A40002FB7F8948091610290916202A0916302A5
:100A5000B09164022FBF88199909AA09BB098415AE
:100A60009505A605B70508F043C084E293E00E940F
:100A7000A103892B81F084E293E00E94B7038F8366
:100A8000188641E050E0BE01695F7F4FCE010196BC
:100A90000E942204EACF8D819E81892B89F20981EF
:100AA0001A81F70160817181C8010E94A90F009726
:100AB00039F2801B910B019619F211E0CE010196DB
:100AC0000E94DF04812F28960FB6F894DEBF0FBE78
:100AD000CDBFDF91CF911F910F91FF90EF90BF900D
:100AE000AF909F908F907F906F905F904F90089500
:100AF00010E0E4CF1F920F920FB60F9211242F93A4
:100B00003F938F939F93AF93BF9380916102909196
:100B10006202A0916302B09164023091600223E00E
:100B2000230F2D3758F50196A11DB11D20936002AA
:100B30008093610290936202A0936302B093640277
:100B40008091650290916602A0916702B09168025F
:100B50000196A11DB11D8093650290936602A0933A
:100B60006702B0936802BF91AF919F918F913F91BF
:100B70002F910F900FBE0F901F90189526E8230F0E
:100B80000296A11DB11DD2CF1F920F920FB60F92E8
:100B900011242F933F934F935F936F937F938F9382
:100BA0009F93AF93BF93EF93FF9389E692E00E94E8
:100BB0008202FF91EF91BF91AF919F918F917F91B1
:100BC0006F915F914F913F912F910F900FBE0F90BA
:100BD0001F9018951F920F920FB60F9211242F930A
:100BE0008F939F93EF93FF93E0917902F0917A02B4
:100BF0008081E0917F02F091800282FD1BC0908194
:100C0000809182028F5F8F7320918302821741F05F
:100C1000E0918202F0E0E759FD4F958F80938202C8
:100C2000FF91EF919F918F912F910F900FBE0F9099
:100C30001F9018958081F4CF1F920F920FB60F92DC
:100C400011242F933F934F935F936F937F938F93D1
:100C50009F93AF93BF93EF93FF93E0915A02F0916C
:100C60005B02309749F0A685B7858585968D91FF03
:100C700014C09C918923A1F4FF91EF91BF91AF9192
:100C80009F918F917F916F915F914F913F912F91A4
:100C90000F900FBE0F901F9018959C91892361F7BC
:100CA000A389B4899C918589809589238C938689B1
:100CB00097890197F1F7608D718DA685B785558568
:100CC00038E020E0CB010197F1F7822F90E0959575
:100CD0008795282F4C91452309F02068315091F7D2
:100CE000868D81FD20958091590290E001968F7349
:100CF000992730915802381799F0A0915902B0E025
:100D0000A85EBD4F2C9380935902828D938D0197DD
:100D1000F1F7A389B4898C919589892B8C93ACCFF9
:100D2000868D8160868FF1CFCF92DF92EF92FF9216
:100D30000F931F93E82FF92F05C0015011092109C6
:100D4000310961F1908196239417B9F305C00150E0
:100D500011092109310911F1908196239413F7CFDC
:100D6000C12CD12CE12CF12C0AC08FEFC81AD80A63
:100D7000E80AF80A0C151D052E053F0579F080815B
:100D80008623841791F36C2D7D2D8E2D9F2D1F9121
:100D90000F91FF90EF90DF90CF90089560E070E0AA
:100DA00080E090E01F910F91FF90EF90DF90CF9047
:100DB000089510926C0210926B0288EE93E0A0E00E
:100DC000B0E080936D0290936E02A0936F02B09397
:100DD00070022AE031E030936A022093690225EC28
:100DE00030E0309376022093750224EC30E03093AB
:100DF00078022093770220EC30E030937A0220933F
:100E0000790221EC30E030937C0220937B0222ECCB
:100E100030E030937E0220937D0226EC30E0309368
:100E2000800220937F02109282021092830210921D
:100E30008402109285021092270310922603809359
:100E4000280390932903A0932A03B0932B038CE1EA
:100E500091E0909325038093240310923B0310921A
:100E60003A0310923D0310923C0310923F031092FC
:100E70003E031092410310924003609142036E7F43
:100E80006D7F609342036695617081E0682783E01F
:100E90000E94300161E083E00E947C01E7EFF1E015
:100EA000E491E0933403E3EEF1E0E491F0E0EE0F3F
:100EB000FF1FEA52FE4F85919491909336038093E1
:100EC000350360E082E00E947C018091420381FD55
:100ED00004C061E082E00E94300182E08093300330
:100EE000E6EFF1E0E491E0933103E2EEF1E0E4912A
:100EF000F0E0EE0FFF1FE453FE4F85919491909325
:100F00003303809332036AE271E08EE193E00E9442
:100F1000CE0469E371E088E193E00E94CE046CE4C2
:100F200071E082E193E00E94CE0464E671E08CE01F
:100F300093E00E94CE0467E771E086E093E00C94B2
:100F4000CE04CF93DF93CDB7DEB7EA970FB6F89410
:100F5000DEBF0FBECDBF789484B5826084BD84B5FA
:100F6000816084BD85B5826085BD85B5816085BDA4
:100F700080916E00816080936E001092810080915C
:100F800081008260809381008091810081608093E4
:100F90008100809180008160809380008091B10009
:100FA00084608093B1008091B00081608093B00034
:100FB00080917A00846080937A0080917A008260C8
:100FC00080937A0080917A00816080937A0080918A
:100FD0007A00806880937A001092C100E0917902D3
:100FE000F0917A0282E08083E0917502F0917602BE
:100FF0001082E0917702F09178028FEC808310925A
:101000008102E0917D02F0917E0286E08083E09192
:101010007B02F0917C02808180618083E0917B0281
:10102000F0917C02808188608083E0917B02F09166
:101030007C02808180688083E0917B02F0917C0259
:1010400080818F7D808310923F0310923E03109227
:101050003D0310923C0310923B0310923A038DE93A
:1010600091E0909341038093400390913003963137
:1010700008F047C02DEB30E030933B0320933A0358
:101080002BE931E030933D0320933C032CE231E027
:1010900030933F0320933E032091680084E0983012
:1010A00048F031E09E3008F430E081E001C0880F64
:1010B0003A95EAF7822B809368002DE630E098306D
:1010C00050F02BE630E09E3030F02CE630E09631E8
:1010D00010F030E020E03093380320933703292FBD
:1010E00030E0983008F00EC281E001C0880F9A9578
:1010F000EAF780933903809140039091410301976F
:10110000F1F780913E0390913F03892B49F1E091E3
:101110005A02F0915B0223E0E432F20709F13097C2
:1011200039F0A389B4899C918589809589238C9312
:10113000809142038E7F8093420310925902109255
:10114000580284E293E090935B0280935A02E0910C
:101150003703F0913803808190913903892B808384
:1011600061E089E00E947C0160E088E00E947C01EF
:1011700060E089E00E94300188EE90E00E94EA037E
:1011800088EB90E00E94EA0389E890E00E94EA037D
:1011900068EE73E080E090E00E94D2016AE771E0BF
:1011A000CE0101960E94CE046DE771E0CE018396D8
:1011B0000E94CE049E012F5F3F4F40ED57E060E05C
:1011C00070E0CE0183960E94E704CE0183960E94D0
:1011D000DF04CE0101960E94DF046AE771E0CE01D0
:1011E00001960E94CE0460E871E0CE0183960E94D1
:1011F000CE049E012F5F3F4F40ED57E060E070E06E
:10120000CE0183960E94E704CE0183960E94DF04FC
:10121000CE0101960E94DF046CE871E0CE010196D8
:101220000E94CE046EE173E0CE0101960E94760426
:1012300067EA71E00E94600468E173E00E9476044E
:1012400069EA71E00E946004BC01CE0189960E94A7
:10125000B404CE0101960E94DF046AE771E0CE017A
:1012600001960E94CE04BE01675D7F4FCE0183963A
:101270000E94B4049E012F5F3F4F40E45FE160E0B5
:1012800070E0CE0183960E94E704CE0183960E940F
:10129000DF04CE0101960E94DF0488E690E00E9400
:1012A000EA03CE0189960E94DF0443E0242E312C0C
:1012B0005AE0452E512C612C712C60E089E00E948F
:1012C0003001C1010197F1F761E089E00E9430012E
:1012D00083E290E00197F1F760E089E00E9430013D
:1012E000ECEFF1E06491E8EEF1E08491E82FF0E0BA
:1012F000EE0FFF1FE453FE4F8591949100E315E735
:1013000020E030E0462F0E949406611571058105AA
:10131000910509F404C16F5F7F4F8F4F9F4F9F70FE
:10132000611571058105910509F4F9C00E94290C28
:1013300028E23EE74CE05DE30E94640C20E030E0F0
:1013400040E05FE30E94640C0E94590D6B017C0138
:10135000F1E9CF16F1E0DF06E104F10434F020E911
:10136000C22EDD24D394E12CF12C22E0C216D1044C
:10137000E104F1042CF492E0C92ED12CE12CF12CE3
:101380002FB7F8948091610290916202A09163025C
:10139000B09164022FBF40915C0250915D02609158
:1013A0005E0270915F02841B950BA60BB70B883908
:1013B0009A43A105B10508F492C02FB7F894809123
:1013C000610290916202A0916302B09164022FBF0A
:1013D00080935C0290935D02A0935E02B0935F02E3
:1013E00085E991E00E94F10219A2A70196018E0100
:1013F0000F5D1F4FCA01B901A30192010E948F0D19
:10140000605DF80162938F01211531054105510599
:1014100089F7309729F0BF0189E692E00E94DB034B
:1014200046015701F1E08F1A9108A108B10886E83A
:1014300091E00E94F10281E791E021E3821691049C
:10144000A104B10410F088E691E00E94EA0367E984
:1014500071E0CE0101960E94CE046CE073E0CE01F3
:1014600001960E9476046BEA71E00E94600466E0D7
:1014700073E00E947604BC01CE01C5960E94B404BC
:10148000CE0101960E94DF046AE771E0CE01019669
:101490000E94CE04BE016B5C7F4FCE0183960E94FA
:1014A000B4049E012F5F3F4F40EA5FE060E070E0D0
:1014B000CE0183960E94E704182FCE0183960E94E6
:1014C000DF04CE0101960E94DF0411112FC089E4D0
:1014D00091E00E94EA03CE01C5960E94DF0468EC09
:1014E00070E080E090E00E94D20180E090E0892BE3
:1014F00009F4E3CE0E946E02882309F4DECE0E9436
:101500000000DBCE9E3040F42850310981E001C05C
:10151000880F2A95EAF7EDCD2E503109F7CF80E9F3
:10152000C82EDD24D394E12CF12C2ACF1CA21BA2BF
:101530001EA21DA218A61FA281E090E0E1E38E1674
:101540009104A104B10410F090E080E04AE0BE01F3
:101550006F5F7F4F0E94C10BBE016F5F7F4FCE0157
:1015600083960E94AA041AA619A61CA61BA61EA64C
:101570001DA62AE0AE014F5F5F4FC701B6010E9472
:10158000CC0BBE016F5F7F4FCE0189960E94AA04EB
:101590006EEA71E0CE0101960E94CE0462E173E032
:1015A000CE0101960E94760463EC71E00E94600413
:1015B000BE01675D7F4F0E9476046CEC71E00E9473
:1015C0006004BE016D5D7F4F0E94760465ED71E0A1
:1015D0000E94600461EE71E00E9460046CE073E0C0
:1015E0000E9476046BEF71E00E94600468EE71E087
:1015F0000E946004BC01CE018F960E94B404CE010B
:1016000001960E94DF04CE0189960E94DF04CE017C
:1016100083960E94DF048BA99CA91CA21BA21EA278
:101620001DA218A61FA24AE0BE016F5F7F4F0E9455
:10163000FD0BBE016F5F7F4FCE0183960E94AA040F
:101640006EEF71E0CE0101960E94CE04BE016D5D89
:101650007F4FCE0101960E947604BC01CE0189968F
:101660000E94B404CE0101960E94DF04CE0183964D
:101670000E94DF046AE072E0CE0101960E94CE046F
:10168000BE01675D7F4FCE0183960E94B4049E0128
:101690002F5F3F4F40ED57E060E070E0CE01839652
:1016A0000E94E704182FCE0183960E94DF04CE012A
:1016B00001960E94DF04112361F04BA95CA96FA57C
:1016C00078A984E293E00E94040288E191E00E94FC
:1016D000EA036AE771E0CE0101960E94CE046CE055
:1016E00072E0CE0183960E94CE049E012F5F3F4F91
:1016F00040ED57E060E070E0CE0183960E94E70481
:10170000CE0183960E94DF04CE0101960E94DF0481
:10171000CE0189960E94DF04CE018F960E94DF04DD
:10172000DACE86E093E00E94DF048CE093E00E9432
:10173000DF0482E193E00E94DF0488E193E00E94ED
:10174000DF048EE193E00E94DF048CE191E090934E
:1017500025038093240380915A0290915B02845266
:10176000934071F4E0913703F091380390818091B8
:10177000390380958923808310925B0210925A026C
:101780000895BB274A3031F4992322F4BDE29095A5
:1017900081959F4F0C94FE0BBB272A3051F499235F
:1017A00042F4BDE290958095709561957F4F8F4F83
:1017B0009F4F0C94DC0BBB27FA01A62F6217710513
:1017C00081059105330B30FB66F0AA27660F771F62
:1017D000881F991FAA1FA21710F0A21B63953850EB
:1017E000A9F7A05DAA3308F0A95DA19336F7B1115E
:1017F000B1931082CA010C94170CBB27FB0155272B
:10180000AA27880F991FAA1FA41710F0A41B83955D
:101810005051B9F7A05DAA3308F0A95DA1930097D4
:1018200079F7B111B1931192CB010C94170CDC0133
:10183000FC01672F71917723E1F7329704C07C9107
:101840006D9370836291AE17BF07C8F30895E89453
:1018500009C097FB3EF490958095709561957F4FF8
:101860008F4F9F4F9923A9F0F92F96E9BB279395A6
:10187000F695879577956795B795F111F8CFFAF4B6
:10188000BB0F11F460FF1BC06F5F7F4F8F4F9F4FE7
:1018900016C0882311F096E911C0772321F09EE845
:1018A000872F762F05C0662371F096E8862F70E0AB
:1018B00060E02AF09A95660F771F881FDAF7880F85
:1018C0009695879597F908950E94770C0C94E80CEB
:1018D0000E94DA0C38F00E94E10C20F0952311F000
:1018E0000C94D10C0C94D70C11240C941C0D0E9458
:1018F000F90C70F3959FC1F3950F50E0551F629F4F
:10190000F001729FBB27F00DB11D639FAA27F00D58
:10191000B11DAA1F649F6627B00DA11D661F829F7F
:101920002227B00DA11D621F739FB00DA11D621F64
:10193000839FA00D611D221F749F3327A00D611D81
:10194000231F849F600D211D822F762F6A2F112463
:101950009F5750409AF0F1F088234AF0EE0FFF1F96
:10196000BB1F661F771F881F91505040A9F79E3FED
:10197000510580F00C94D10C0C941C0D5F3FE4F3E6
:10198000983ED4F3869577956795B795F795E79543
:101990009F5FC1F7FE2B880F911D9695879597F94C
:1019A000089597F99F6780E870E060E008959FEFE1
:1019B00080EC089500240A941616170618060906E6
:1019C000089500240A9412161306140605060895B5
:1019D000092E0394000C11F4882352F0BB0F40F43D
:1019E000BF2B11F460FF04C06F5F7F4F8F4F9F4F7D
:1019F000089557FD9058440F551F59F05F3F71F0FF
:101A00004795880F97FB991F61F09F3F79F0879565
:101A10000895121613061406551FF2CF4695F1DFEE
:101A200008C0161617061806991FF1CF869571057E
:101A3000610508940895E894BB2766277727CB01B2
:101A400097F908952F923F924F925F926F927F92F3
:101A50008F929F92AF92BF92CF92DF92EF92FF92BE
:101A60000F931F93CF93DF93CDB7DEB7CA1BDB0B6A
:101A70000FB6F894DEBF0FBECDBF09942A8839880F
:101A800048885F846E847D848C849B84AA84B98416
:101A9000C884DF80EE80FD800C811B81AA81B98122
:101AA000CE0FD11D0FB6F894DEBF0FBECDBFED0136
:101AB00008950E94600D6894B1110C941C0D089556
:101AC0000E94010D88F09F5798F0B92F9927B751C0
:101AD000B0F0E1F0660F771F881F991F1AF0BA95D2
:101AE000C9F714C0B13091F00E941B0DB1E0089508
:101AF0000C941B0D672F782F8827B85F39F0B93FFA
:101B0000CCF3869577956795B395D9F73EF4909584
:101B10008095709561957F4F8F4F9F4F0895A1E2FB
:101B20001A2EAA1BBB1BFD010DC0AA1FBB1FEE1F57
:101B3000FF1FA217B307E407F50720F0A21BB30BA2
:101B4000E40BF50B661F771F881F991F1A9469F71E
:101B500060957095809590959B01AC01BD01CF017A
:101B60000895EE0FFF1F0590F491E02D09940F9357
:101B70001F93CF93DF938230910510F482E090E0C1
:101B8000E0914503F091460330E020E0B0E0A0E0B2
:101B9000309799F42115310509F44AC0281B390BF7
:101BA00024303105D8F58A819B816115710589F151
:101BB000FB0193838283FE0111C040815181028128
:101BC000138148175907E0F04817590799F41097FF
:101BD00061F012960C93129713961C933296CF01D4
:101BE000DF91CF911F910F910895009345031093BA
:101BF0004603F4CF2115310551F04217530738F051
:101C0000A901DB019A01BD01DF01F801C1CFEF019C
:101C1000F9CF9093460380934503CDCFFE01E20FA9
:101C2000F31F819391932250310939832883D7CFB1
:101C30002091430330914403232B41F4209102016E
:101C4000309103013093440320934303209100011A
:101C5000309101012115310541F42DB73EB7409176
:101C6000040150910501241B350BE0914303F091D1
:101C70004403E217F307A0F42E1B3F0B2817390784
:101C800078F0AC014E5F5F4F2417350748F04E0FD8
:101C90005F1F5093440340934303819391939FCFDD
:101CA000F0E0E0E09CCFCF93DF930097E9F0FC01F8
:101CB000329713821282A0914503B0914603ED0141
:101CC00030E020E01097A1F420813181820F931F32
:101CD00020914303309144032817390709F061C06C
:101CE000F0934403E0934303DF91CF910895EA0119
:101CF000CE17DF07E8F54A815B819E01411551054A
:101D0000B1F7E901FB83EA8349915991C40FD51FCB
:101D1000EC17FD0761F4808191810296840F951F75
:101D2000E90199838883828193819B838A83F0E090
:101D3000E0E012968D919C9113970097B9F52D9143
:101D40003C911197CD010296820F931F209143037E
:101D5000309144032817390739F6309751F510921E
:101D6000460310924503B0934403A0934303BCCFB2
:101D7000D383C28340815181840F951FC817D9072F
:101D800061F44E5F5F4F88819981480F591F5183DD
:101D900040838A819B81938382832115310509F0D9
:101DA000B0CFF0934603E09345039ECFFD01DC01E5
:101DB000C0CF13821282D7CFB0E0A0E0E2EEFEE007
:101DC0000C94240D8C01009751F4CB010E94B70DA7
:101DD0008C01C801CDB7DEB7E0E10C94400DFC01E9
:101DE000E60FF71F9C0122503109E217F30708F4B0
:101DF0009DC0D901CD91DC911197C617D70798F0F6
:101E0000C530D10530F3CE0104978617970708F344
:101E1000C61BD70B2297C193D1936D937C93CF01AF
:101E20000E94530ED6CF5B01AC1ABD0A4C018C0E3A
:101E30009D1EA0914503B0914603512C412CF12CDD
:101E4000E12C109731F5809143039091440388155C
:101E5000990509F05CC04616570608F058C08091F5
:101E6000000190910101009741F48DB79EB7409118
:101E7000040150910501841B950BE817F90708F040
:101E800055C0F0934403E0934303F90171836083E9
:101E9000A0CF8D919C91119712966C9012971396EA
:101EA0007C901397A815B90559F56C0142E0C40E52
:101EB000D11CCA14DB0420F1AC014A195B09DA0118
:101EC0001296159780F06282738251834083D90104
:101ED0006D937C93E114F10471F0D7011396FC9398
:101EE000EE93129776CF22968C0F9D1FF901918366
:101EF0008083F301EFCFF0934603E093450369CF6E
:101F00004816590608F42C017D01D3019ACFCB0164
:101F10000E94B70D7C01009749F0AE01B8010E9404
:101F2000990FC8010E94530E870153CF10E000E0C3
:101F300050CFFB01DC0102C001900D924150504096
:101F4000D8F70895FB01DC0101900D920020E1F724
:101F50000895FB0151915523A9F0BF01DC014D917A
:101F600045174111E1F759F4CD010190002049F0E6
:101F70004D9140154111C9F3FB014111EFCF81E0B3
:101F800090E00197089511E0C5E0D1E004C0FE01A2
:101F90000E94B10D2196C630D107C9F7F894FFCF42
:101FA00000004703800000000000A4020402310288
:101FB0000C036202400254020000000045030402C8
:101FC000D8034403A103B7032C03596F75725F57FD
:101FD0006946695F5353494400596F75725F576989
:101FE00046695F50617373776F726400594F555241
:101FF0005F5448494E47535045414B5F4150495FFC
:102000004B4559006170692E7468696E677370651D
:10201000616B2E636F6D003830004F4B00415400F0
:1020200041542B43574D4F44453D310041542B43C0
:10203000574A41503D220041542B4349505354418B
:1020400052543D22544350222C2200222C0047455A
:1020500054202F7570646174653F6170695F6B65B2
:10206000793D00266669656C64313D0026666965C8
:102070006C64323D0020485454502F312E310D0AEB
:1020800000486F73743A2000436F6E6E6563746925
:102090006F6E3A20636C6F73650D0A0D0A00415430
:1020A0002B43495053454E443D003E0041542B4381
:0820B0004950434C4F53450019
:107E0000112484B714BE81FFF0D085E080938100F7
:107E100082E08093C00088E18093C10086E0809377
:107E2000C20080E18093C4008EE0C9D0259A86E02C
:107E300020E33CEF91E0309385002093840096BBD3
:107E4000B09BFECF1D9AA8958150A9F7CC24DD24C4
:107E500088248394B5E0AB2EA1E19A2EF3E0BF2EE7
:107E6000A2D0813461F49FD0082FAFD0023811F036
:107E7000013811F484E001C083E08DD089C08234E0
:107E800011F484E103C0853419F485E0A6D080C0E4
:107E9000853579F488D0E82EFF2485D0082F10E0AE
:107EA000102F00270E291F29000F111F8ED06801E7
:107EB0006FC0863521F484E090D080E0DECF843638
:107EC00009F040C070D06FD0082F6DD080E0C81688
:107ED00080E7D80618F4F601B7BEE895C0E0D1E017
:107EE00062D089930C17E1F7F0E0CF16F0E7DF06D8
:107EF00018F0F601B7BEE89568D007B600FCFDCFD4
:107F0000A601A0E0B1E02C9130E011968C91119780
:107F100090E0982F8827822B932B1296FA010C0160
:107F200087BEE89511244E5F5F4FF1E0A038BF0790
:107F300051F7F601A7BEE89507B600FCFDCF97BE46
:107F4000E89526C08437B1F42ED02DD0F82E2BD052
:107F50003CD0F601EF2C8F010F5F1F4F84911BD097
:107F6000EA94F801C1F70894C11CD11CFA94CF0C13
:107F7000D11C0EC0853739F428D08EE10CD085E9AC
:107F80000AD08FE07ACF813511F488E018D01DD067
:107F900080E101D065CF982F8091C00085FFFCCF94
:107FA0009093C60008958091C00087FFFCCF809118
:107FB000C00084FD01C0A8958091C6000895E0E648
:107FC000F0E098E1908380830895EDDF803219F02E
:107FD00088E0F5DFFFCF84E1DECF1F93182FE3DFCA
:107FE0001150E9F7F2DF1F91089580E0E8DFEE27F6
:047FF000FF270994CA
:027FFE00040479
:00000001FF
