:100000000C9430010C947C040C9455040C9458010D
:100010000C9458010C9458010C9458010C945801FC
:100020000C9458010C9458010C9458010C945801EC
:100030000C9458010C9458010C9458010C945801DC
:100040000C940B040C9458010C94C9040C94A30454
:100050000C9458010C9458010C9458010C945801BC
:100060000C9458010C9458013D3D3D3D3D3D3D3DB6
:100070003D3D3D3D3D3D3D3D3D3D3D3D3D3D3D3DB0
:100080003D3D3D3D3D3D3D3D3D3D3D3D3D3D3D3DA0
:100090003D3D3D3D3D3D3D3D3D3D0020486172645F
:1000A0007761726520496E7465727275707420286C
:1000B000494E54302920417474616368656420742A
:1000C0006F2050696E2032202020202020002053F5
:1000D0006D61727420486F6D6520456467652043CB
:1000E0006F6E74726F6C6C657220496E69746961B1
:1000F0006C697A6564202852656164792920202022
:10010000003D3D3D3D3D3D3D3D3D3D3D3D3D3D3D5C
:100110003D3D3D3D3D3D3D3D3D3D3D3D3D3D3D3D0F
:100120003D3D3D3D3D3D3D3D3D3D3D3D3D3D3D3DFF
:100130003D3D3D004F4646004F4E004E4F00594555
:100140005300207C20526F6F6D204C696768743AB1
:100150002000207C204D6F74696F6E3A20005B4E4A
:100160004F524D414C5D20476173204C6576656C64
:100170003A20005B53595354454D205245434F5646
:10018000455245445D20476173204C6576656C207F
:100190004E6F726D616C2E2052657475726E696E51
:1001A0006720746F2045646765204D6F64652E007D
:1001B000202D3E2053595354454D204F5645525201
:1001C00049444520414354495645202853697265A6
:1001D0006E73204F4E29005B435249544943414CB2
:1001E00020414C4552545D204741532F534D4F4BB6
:1001F0004520444554454354454421204C6576658B
:100200006C3A200000000000240027002A000000B3
:100210000000250028002B0000000000230026001D
:100220002900040404040404040402020202020279
:1002300003030303030301020408102040800102AA
:100240000408102001020408102000000008000229
:100250000100000304070000000000000000A206E7
:1002600011241FBECFEFD8E0DEBFCDBF11E0A0E06C
:10027000B1E0E2EFFDE002C005900D92AA31B107B6
:10028000D9F721E0AAE1B1E001C01D92AF3CB2076D
:10029000E1F711E0C0E3D1E004C02197FE010E9424
:1002A000F106CF32D107C9F70E94FB040C94F70680
:1002B0000C940000833081F028F4813099F0823072
:1002C000A9F008958730A9F08830C9F08430B1F4DE
:1002D000809180008F7D03C0809180008F77809314
:1002E0008000089584B58F7784BD089584B58F7D8F
:1002F000FBCF8091B0008F778093B00008958091FC
:10030000B0008F7DF9CFCF93DF93282F30E0F90134
:10031000E65BFD4F8491F901EA5CFD4FD491F90150
:10032000EE5DFD4FC491CC23A1F081110E945A01D2
:10033000EC2FF0E0EE0FFF1FE85EFD4FA591B491AA
:10034000EC91ED2381E090E009F480E0DF91CF9122
:10035000089580E090E0FACF1F93CF93DF93282F8A
:1003600030E0F901E65BFD4F8491F901EA5CFD4F55
:10037000D491F901EE5DFD4FC491CC23A9F0162F65
:1003800081110E945A01EC2FF0E0EE0FFF1FE25F97
:10039000FD4FA591B4918FB7F894EC91111108C05D
:1003A000D095DE23DC938FBFDF91CF911F9108950D
:1003B000DE2BF8CFCF93DF9390E0FC01EA5CFD4F9A
:1003C00024918E5D9D4FFC0184918823D1F090E0B3
:1003D000880F991FFC01EC5FFD4FA591B491FC01C2
:1003E000E25FFD4FC591D49161110EC09FB7F894A3
:1003F0008C91E22FE0958E238C932881E223E88371
:100400009FBFDF91CF9108958FB7F894EC91E22BC5
:10041000EC938FBFF6CF3FB7F89480912E01909167
:100420002F01A0913001B091310126B5A89B05C0E4
:100430002F3F19F00196A11DB11D3FBFBA2FA92F63
:10044000982F8827BC01CD01620F711D811D911D60
:1004500042E0660F771F881F991F4A95D1F70895CC
:100460002FB7F89460912A0170912B0180912C0193
:1004700090912D012FBF08950895AF92BF92CF9212
:10048000DF92EF92FF920F931F93CF93DF936C0154
:100490007B018B01040F151FEB015E01AE18BF0835
:1004A000C017D10759F06991D601ED91FC910190E7
:1004B000F081E02DC6010995892B79F7C501DF91FF
:1004C000CF911F910F91FF90EF90DF90CF90BF9051
:1004D000AF900895FC01538D448D252F30E0842F7B
:1004E00090E0821B930B541710F0CF96089501975C
:1004F0000895FC01918D828D981761F0A28DAE0F49
:10050000BF2FB11D5D968C91928D9F5F9F73928FCF
:1005100090E008958FEF9FEF0895FC01918D828DFB
:10052000981731F0828DE80FF11D858D90E00895C8
:100530008FEF9FEF0895FC01918D228D892F90E020
:10054000805C9F4F821B91098F739927089582E3E6
:1005500091E00E949B0221E0892B09F420E0822F88
:10056000089580E090E0892B29F00E94A702811174
:100570000C9400000895FC01A48DA80FB92FB11DA3
:10058000A35ABF4F2C91848D90E001968F739927C9
:10059000848FA689B7892C93A089B1898C918370A7
:1005A00080648C93938D848D981306C00288F389A0
:1005B000E02D80818F7D80830895EF92FF920F93CD
:1005C0001F93CF93DF93EC0181E0888F9B8D8C8DFF
:1005D00098131AC0E889F989808185FF15C09FB7F3
:1005E000F894EE89FF896083E889F98980818370B6
:1005F000806480839FBF81E090E0DF91CF911F9165
:100600000F91FF90EF900895F62E0B8D10E00F5F85
:100610001F4F0F731127E02E8C8D8E110CC00FB65B
:1006200007FCFACFE889F989808185FFF5CFCE01F3
:100630000E94BB02F1CFEB8DEC0FFD2FF11DE35AB1
:10064000FF4FF0829FB7F8940B8FEA89FB89808176
:100650008062CFCF0F931F93CF93DF938C01D0E0B5
:10066000C0E0F801EC0FFD1F6491662341F082E3C6
:1006700091E00E94DD02892B11F02196F2CFCE018C
:10068000DF91CF911F910F910895CF93DF93EC01EC
:10069000888D8823B9F0AA89BB89E889F9898C916A
:1006A00085FD03C0808186FD0DC00FB607FCF7CF26
:1006B0008C9185FFF2CF808185FFEDCFCE010E9426
:1006C000BB02E9CFDF91CF91089582E00E948301C0
:1006D000019771F481E0809322010E9430026093BF
:1006E0001E0170931F0180932001909321010895B2
:1006F0001092220108958F929F92AF92BF920F9312
:100700001F93CF93DF93CDB7DEB7A1970FB6F894C1
:10071000DEBF0FBECDBF19A2423008F44AE08E0101
:100720000F5D1F4F842E912CB12CA12CA50194019B
:100730000E94CF06E62FB901CA01EA3044F5E05D18
:10074000D801EE938D01232B242B252B79F790E0F4
:1007500080E0109769F0FD0101900020E9F73197E2
:10076000AF014A1B5B0BBD0182E391E00E943D0299
:10077000A1960FB6F894DEBF0FBECDBFDF91CF912B
:100780001F910F91BF90AF909F908F900895E95C5B
:10079000D7CFCF93DF930E942A03EC0142E050E0D1
:1007A00066E171E082E391E00E943D028C0F9D1FA3
:1007B000DF91CF910895CF92DF92EF92FF92CF9386
:1007C000DF936C01990FEE08FF08F7FE19C06DE288
:1007D00082E391E00E94DD02EC0166277727CB01DE
:1007E0006C197D098E099F094AE00E947B038C0FDA
:1007F0009D1FDF91CF91FF90EF90DF90CF900895F4
:100800004AE0C701B601DF91CF91FF90EF90DF90F2
:10081000CF900C947B031F920F920FB60F9211246E
:100820002F933F938F939F93AF93BF9380912A0110
:1008300090912B01A0912C01B0912D0130912901B3
:1008400023E0230F2D3758F50196A11DB11D2093EC
:10085000290180932A0190932B01A0932C01B0933E
:100860002D0180912E0190912F01A0913001B09126
:1008700031010196A11DB11D80932E0190932F018E
:10088000A0933001B0933101BF91AF919F918F91AF
:100890003F912F910F900FBE0F901F90189526E853
:1008A000230F0296A11DB11DD2CF1F920F920FB63A
:1008B0000F9211242F933F934F935F936F937F93E6
:1008C0008F939F93AF93BF93EF93FF93E0910201B8
:1008D000F09103010995FF91EF91BF91AF919F9125
:1008E0008F917F916F915F914F913F912F910F90D9
:1008F0000FBE0F901F9018951F920F920FB60F9278
:1009000011242F933F934F935F936F937F938F9314
:100910009F93AF93BF93EF93FF93E0910001F0910A
:1009200001010995FF91EF91BF91AF919F918F9137
:100930007F916F915F914F913F912F910F900FBEDB
:100940000F901F9018951F920F920FB60F921124BF
:100950002F933F934F935F936F937F938F939F93C7
:10096000AF93BF93EF93FF9382E391E00E94BB02AA
:10097000FF91EF91BF91AF919F918F917F916F9177
:100980005F914F913F912F910F900FBE0F901F904D
:1009900018951F920F920FB60F9211242F938F93D9
:1009A0009F93EF93FF93E0914201F0914301808187
:1009B000E0914801F091490182FD1BC09081809136
:1009C0004B018F5F8F7320914C01821741F0E091B2
:1009D0004B01F0E0EE5CFE4F958F80934B01FF9151
:1009E000EF919F918F912F910F900FBE0F901F90BD
:1009F00018958081F4CF789484B5826084BD84B5E5
:100A0000816084BD85B5826085BD85B5816085BD09
:100A100080916E00816080936E00109281008091C1
:100A20008100826080938100809181008160809349
:100A30008100809180008160809380008091B1006E
:100A400084608093B1008091B00081608093B00099
:100A500080917A00846080937A0080917A0082602D
:100A600080937A0080917A00816080937A008091EF
:100A70007A00806880937A001092C100E091420170
:100A8000F091430182E08083E0913E01F0913F01CB
:100A90001082E0914001F09141018FEC808310922F
:100AA0004A01E0914601F091470186E08083E091A0
:100AB0004401F0914501808180618083E09144018F
:100AC000F0914501808188608083E0914401F0913C
:100AD0004501808180688083E0914401F091450167
:100AE00080818F7D808361E088E00E94DA0161E08F
:100AF00089E00E94DA0161E08AE00E94DA0160E0A8
:100B000088E00E94AC0160E089E00E94AC0160E0F6
:100B10008AE00E94AC0160E082E00E94DA0185E692
:100B200093E09093010180930001809169008C7F94
:100B3000816080936900E89A81E091E00E94C90396
:100B40008EEC90E00E94C9038BE990E00E94C903FB
:100B500088E690E00E94C90310E4C0E0D0E0109362
:100B60007C0080917A00806480937A0080917A0082
:100B700086FDFCCFE0907800F090790021E9E21644
:100B800021E0F2060CF46AC001E00093280160E065
:100B900088E00E94AC0161E089E00E94AC010E9403
:100BA00030028090240190902501A0902601B09001
:100BB0002701681979098A099B0966397105810538
:100BC000910590F00E9430026093240170932501FA
:100BD0008093260190932701609123016027609301
:100BE00023018AE00E94AC0187ED91E00E942A0374
:100BF000C7010E94DB0380EB91E00E94C9030E94C1
:100C00000B024B015C0184E1C82ED12CE12CF12CAC
:100C10000E940B02681979098A099B09683E734092
:100C200081059105A8F381E0C81AD108E108F1080F
:100C300028EE820E23E0921EA11CB11CC114D10427
:100C4000E104F10429F7209709F489CF0E94A70253
:100C5000882309F484CF0E94000081CF809128016D
:100C6000882371F01092280160E089E00E94AC01B5
:100C700060E08AE00E94AC0183E791E00E94C90332
:100C800080912201882309F441C061E088E00E943C
:100C9000AC010E94300280901A0190901B01A0903C
:100CA0001C01B0901D01681979098A099B09683EE9
:100CB00073408105910508F4A2CF0E943002609331
:100CC0001A0170931B0180931C0190931D018EE506
:100CD00091E00E942A03C7010E94DB0382E591E0B4
:100CE0000E942A0380912201811126C08BE391E0AA
:100CF0000E942A0382E491E00E942A0388E00E9475
:100D00008301892BE1F484E391E077CF0E943002E4
:100D100080901E0190901F01A0902001B0902101B1
:100D2000681979098A099B09683873418105910519
:100D300008F4ABCF60E0AACF8EE391E0D9CF88E38F
:100D400091E05BCFE2E3F1E01382128288EE93E060
:100D5000A0E0B0E084839583A683B78388E091E028
:100D60009183808385EC90E09587848784EC90E084
:100D70009787868780EC90E0918B808B81EC90E068
:100D8000938B828B82EC90E0958B848B86EC90E049
:100D9000978B868B118E128E138E148E0895A1E27E
:100DA0001A2EAA1BBB1BFD010DC0AA1FBB1FEE1FE5
:100DB000FF1FA217B307E407F50720F0A21BB30B30
:100DC000E40BF50B661F771F881F991F1A9469F7AC
:100DD00060957095809590959B01AC01BD01CF0108
:100DE0000895EE0FFF1F0590F491E02D0994F894FB
:020DF000FFCF33
:100DF2003C023C0200000000DD023D026A024503A3
:0A0E02009B0279028D020D0A000028
:00000001FF
