:020000040000FA
:100000000C9400010C9428010C9428010C942801F4
:100010000C9428010C9428010C9428010C942801BC
:100020000C9428010C9428010C9428010C942801AC
:100030000C9428010C9428010C9428010C9428019C
:100040000C940A030C9428010C947A030C94540326
:100050000C9428010C9428010C9428010C9428017C
:100060000C9428010C9428010000000024002700B3
:100070002A003D3D3D3D3D3D3D3D3D3D3D3D3D3D00
:100080003D3D3D3D3D3D3D3D3D3D3D3D3D3D3D3DA0
:100090003D3D3D3D3D3D3D3D3D3D3D3D3D3D3D3D90
:1000A0003D3D3D3D3D3D3D3D3D0A002052656C617D
:1000B00079204472697665723A2041435449564525
:1000C0002D4C4F57206F6E2050696E2037207C20BA
:1000D00053656E736F72206F6E2050696E204130D1
:1000E00020202000204175746F6D61746564204983
:1000F000727269676174696F6E20436F6E74726F9C
:100100006C6C6572204669726D7761726520496E0C
:10011000697469616C697A656420000A3D3D3D3D02
:100120003D3D3D3D3D3D3D3D3D3D3D3D3D3D3D3DFF
:100130003D3D3D3D3D3D3D3D3D3D3D3D3D3D3D3DEF
:100140003D3D3D3D3D3D3D3D3D3D3D3D3D3D3D3DDF
:100150003D3D3D005B50554D50204143544956456F
:10016000202D205741544552494E475D005B535462
:10017000414E444259202D2049444C455D002520E4
:100180007C2053746174653A2000207C204D6F6997
:1001900073747572653A20005B54454C454D455467
:1001A00052595D20526177204144432046696C7466
:1001B000657265643A200000000000250028002BCD
:1001C0000004040404040404040202020202020300
:1001D000030303030301020408102040800102040A
:1001E000081020010204081020000000080002018D
:1001F0000000030407000000000000000000E1050B
:1002000011241FBECFEFD8E0DEBFCDBF11E0A0E0CC
:10021000B1E0E4E8F0E102C005900D92A232B1072E
:10022000D9F721E0A2E2B1E001C01D92A63DB207DC
:10023000E1F710E0C0E0D1E004C02197FE010E9488
:100240003A08CF3FD107C9F70E94AC030C9440088D
:100250000C94000080E480937C0080917A0080649C
:1002600080937A0080917A0086FDFCCF809178009F
:10027000909179000895E0EFF1E02491ECEDF1E048
:100280009491E8ECF1E0E491EE23C9F0222339F0F7
:10029000233001F1A8F4213019F1223029F1F0E0E6
:1002A000EE0FFF1FE954FE4FA591B4912FB7F894BC
:1002B000EC91811126C090959E239C932FBF0895A9
:1002C0002730A9F02830C9F0243049F72091800068
:1002D0002F7D03C0209180002F7720938000DFCFF7
:1002E00024B52F7724BDDBCF24B52F7DFBCF209104
:1002F000B0002F772093B000D2CF2091B0002F7D97
:10030000F9CF9E2BDACFAF92BF92CF92DF92EF92CE
:10031000FF920F931F93CF93DF936C017B018B01AF
:10032000040F151FEB015E01AE18BF08C017D107FF
:1003300059F06991D601ED91FC910190F081E02D89
:10034000C6010995892B79F7C501DF91CF911F91DE
:100350000F91FF90EF90DF90CF90BF90AF900895F6
:10036000FC01538D448D252F30E0842F90E0821BBB
:10037000930B541710F0CF96089501970895FC0140
:10038000918D828D981761F0A28DAE0FBF2FB11D98
:100390005D968C91928D9F5F9F73928F90E00895F0
:1003A0008FEF9FEF0895FC01918D828D981731F0AA
:1003B000828DE80FF11D858D90E008958FEF9FEFFE
:1003C0000895FC01918D228D892F90E0805C9F4FD4
:1003D000821B91098F739927089589E391E00E9408
:1003E000E10121E0892B09F420E0822F089580E0CB
:1003F00090E0892B29F00E94ED0181110C940000FE
:100400000895FC01A48DA80FB92FB11DA35ABF4FA9
:100410002C91848D90E001968F739927848FA68903
:10042000B7892C93A089B1898C91837080648C9357
:10043000938D848D981306C00288F389E02D808106
:100440008F7D80830895EF92FF920F931F93CF9338
:10045000DF93EC0181E0888F9B8D8C8D98131AC0FF
:10046000E889F989808185FF15C09FB7F894EE89E6
:10047000FF896083E889F989808183708064808343
:100480009FBF81E090E0DF91CF911F910F91FF908E
:10049000EF900895F62E0B8D10E00F5F1F4F0F7336
:1004A0001127E02E8C8D8E110CC00FB607FCFACFF1
:1004B000E889F989808185FFF5CFCE010E9401028C
:1004C000F1CFEB8DEC0FFD2FF11DE35AFF4FF082C2
:1004D0009FB7F8940B8FEA89FB8980818062CFCF28
:1004E0000F931F93CF93DF938C01D0E0C0E0F8010E
:1004F000EC0FFD1F6491662341F089E391E00E94B7
:100500002302892B11F02196F2CFCE01DF91CF91FA
:100510001F910F910895CF93DF93EC01888D88236D
:10052000B9F0AA89BB89E889F9898C9185FD03C056
:10053000808186FD0DC00FB607FCF7CF8C9185FF3B
:10054000F2CF808185FFEDCFCE010E940102E9CF7D
:10055000DF91CF910895FC0101900020E9F73197D8
:10056000AF01481B590BBC0189E391E00C94830156
:10057000CF93DF930E947002EC0182E191E00E9430
:10058000AB028C0F9D1FDF91CF9108958F929F92A8
:10059000AF92BF920F931F93CF93DF93CDB7DEB788
:1005A000A1970FB6F894DEBF0FBECDBF19A242309F
:1005B00008F44AE08E010F5D1F4F842E912CB12C60
:1005C000A12CA50194010E943806E62FB901CA01A9
:1005D000EA30F4F4E05DD801EE938D01232B242B57
:1005E000252B79F790E080E0109719F0CD010E945B
:1005F000AB02A1960FB6F894DEBF0FBECDBFDF9160
:10060000CF911F910F91BF90AF909F908F900895C1
:10061000E95CE1CF1F920F920FB60F9211242F9336
:100620003F938F939F93AF93BF93809135019091A8
:100630003601A0913701B09138013091340123E0A7
:10064000230F2D3758F50196A11DB11D20933401BC
:100650008093350190933601A0933701B093380110
:100660008091300190913101A0913201B09133011C
:100670000196A11DB11D8093300190933101A0938B
:100680003201B0933301BF91AF919F918F913F9110
:100690002F910F900FBE0F901F90189526E8230FF3
:1006A0000296A11DB11DD2CF1F920F920FB60F92CD
:1006B00011242F933F934F935F936F937F938F9367
:1006C0009F93AF93BF93EF93FF9389E391E00E94D1
:1006D0000102FF91EF91BF91AF919F918F917F9117
:1006E0006F915F914F913F912F910F900FBE0F909F
:1006F0001F9018951F920F920FB60F9211242F93EF
:100700008F939F93EF93FF93E0914901F0914A01FA
:100710008081E0914F01F091500182FD1BC09081DA
:10072000809152018F5F8F7320915301821741F0A6
:10073000E0915201F0E0E75CFE4F958F809352010B
:10074000FF91EF919F918F912F910F900FBE0F907E
:100750001F9018958081F4CF789484B5826084BD11
:1007600084B5816084BD85B5826085BD85B58160B5
:1007700085BD80916E00816080936E001092810033
:1007800080918100826080938100809181008160EE
:1007900080938100809180008160809380008091AF
:1007A000B10084608093B1008091B000816080933B
:1007B000B00080917A00846080937A0080917A0002
:1007C000826080937A0080917A00816080937A00C1
:1007D00080917A00806880937A001092C10081E055
:1007E0000E943B01ECEDF1E02491E8ECF1E0849112
:1007F000882399F090E0880F991FFC01E859FF4F7A
:10080000A591B491FC01E954FE4F859194918FB765
:10081000F894EC91E22BEC938FBFE0914901F091B9
:100820004A0182E08083E0914501F0914601108207
:10083000E0914701F09148018FEC808310925101C3
:10084000E0914D01F0914E0186E08083E0914B01F3
:10085000F0914C01808180618083E0914B01F091A7
:100860004C01808188608083E0914B01F0914C01C4
:10087000808180688083E0914B01F0914C01808100
:100880008F7D80830E942A01BC01990F880B990BF0
:100890000E94130760932401709325018093260121
:1008A000909327018BE191E00E94B80284EE90E0E2
:1008B0000E94B8028BEA90E00E94B80282E790E0C2
:1008C0000E94B8028CE0882E8EEF982EAA24AA945B
:1008D000BA2C00E010E08FB7F894C0903501D090AA
:1008E0003601E0903701F09038018FBF80912C01E4
:1008F00090912D01A0912E01B0912F01A701960199
:10090000281B390B4A0B5B0BDA01C90184369105B0
:10091000A105B10508F464C0C0922C01D0922D014C
:10092000E0922E01F0922F010E942A01EC012DECA1
:100930003CEC4CE45FE360912401709125018091CF
:100940002601909127010E94C8072B013C01BE019E
:10095000DD0F880B990B0E9413072DEC3CEC4CE447
:100960005EE30E94C8079B01AC01C301B2010E9473
:100970006A06609324017093250180932601909369
:10098000270120E030E040E05FE30E946A060E9419
:10099000DB069B01AC012255334041095109A4E615
:1009A000B0E00E942D06A50194010E940E0657FD9D
:1009B00086C0253631054105510524F024E630E096
:1009C00040E050E02093230180912201811179C001
:1009D0002E3134F481E08093220180E00E943B01BB
:1009E0008091280190912901A0912A01B0912B01B9
:1009F000A7019601281B390B4A0B5B0BDA01C901D1
:100A0000883E9340A105B10508F44DC0C09228016D
:100A1000D0922901E0922A01F0922B0188E991E01D
:100A20000E947002C0902401D0902501E090260120
:100A3000F0902701A7019601C701B6010E94350871
:100A4000882309F445C085E191E00E94AB028AE861
:100A500091E00E947002C09023010C2C000CDD0874
:100A6000EE08FF084AE0C701B601F7FE0DC06DE2CF
:100A700089E391E00E94230266277727CB016C1956
:100A80007D098E099F094AE00E94C6028EE791E027
:100A90000E94700280912201882309F48FC084E5AE
:100AA00091E00E94B8020115110509F414CF0E94CB
:100AB000ED01882309F40FCF0E9400000CCF20E045
:100AC00081CF2E320CF48CCF1092220181E086CFA0
:100AD00026013701E89477F82FEF3FEF4FE75FE704
:100AE000C301B2010E94350881110DC02FEF3FEF05
:100AF0004FE75FE7C301B2010E94D60618161CF447
:100B000089E191E0A2CF2FEF3FEF4FE75FE4C7010C
:100B1000B6010E94C30718161CF48DE191E095CF31
:100B20002FEF3FEF4FE75FECC701B6010E94D606FB
:100B300087FDF3CF20E030E0A901C701B6010E9494
:100B4000D60687FF09C06DE289E391E00E94230287
:100B5000F7FAF094F7F8F0942DEC3CEC4CE45DE3FC
:100B6000C701B6010E946A062B013C010E94E20601
:100B70006B017C010E9411079B01AC01C301B20112
:100B80000E9469062B013C014AE0C701B6010E94A0
:100B9000C6026EE289E391E00E94230220E030E089
:100BA00040E251E4C301B2010E94C8070E94E2067C
:100BB00090E080E04AE00E94C60249CF8DE691E0D5
:100BC00070CFE9E3F1E01382128288EE93E0A0E0B7
:100BD000B0E084839583A683B78384E091E091831A
:100BE000808385EC90E09587848784EC90E09787FC
:100BF000868780EC90E0918B808B81EC90E0938BEA
:100C0000828B82EC90E0958B848B86EC90E0978BC6
:100C1000868B118E128E138E148E0895052E97FBDF
:100C20001EF400940E94250657FD07D00E94380646
:100C300007FC03D04EF40C94250650954095309552
:100C400021953F4F4F4F5F4F089590958095709538
:100C500061957F4F8F4F9F4F08950E945A06A59F21
:100C6000900DB49F900DA49F800D911D11240895A7
:100C7000A1E21A2EAA1BBB1BFD010DC0AA1FBB1FA0
:100C8000EE1FFF1FA217B307E407F50720F0A21B12
:100C9000B30BE40BF50B661F771F881F991F1A947F
:100CA00069F760957095809590959B01AC01BD01A9
:100CB000CF010895A29FB001B39FC001A39F700D03
:100CC000811D1124911DB29F700D811D1124911D54
:100CD00008955058BB27AA270E9481060C948907C3
:100CE0000E947B0738F00E94820720F039F49F3F72
:100CF00019F426F40C9478070EF4E095E7FB0C94B5
:100D00007207E92F0E949A0758F3BA176207730710
:100D10008407950720F079F4A6F50C94BC070EF42F
:100D2000E0950B2EBA2FA02D0B01B90190010C01FB
:100D3000CA01A0011124FF27591B99F0593F50F413
:100D4000503E68F11A16F040A22F232F342F44276B
:100D5000585FF3CF469537952795A795F040539563
:100D6000C9F77EF41F16BA0B620B730B840BBAF033
:100D70009150A1F0FF0FBB1F661F771F881FC2F79E
:100D80000EC0BA0F621F731F841F48F487957795B2
:100D90006795B795F7959E3F08F0B0CF9395880F6C
:100DA00008F09927EE0F9795879508950E944E07B2
:100DB00008F481E008950E94E2066894B1110C9451
:100DC000BD0708950E94A20788F09F5798F0B92F99
:100DD0009927B751B0F0E1F0660F771F881F991F70
:100DE0001AF0BA95C9F714C0B13091F00E94BC074F
:100DF000B1E008950C94BC07672F782F8827B85F5F
:100E000039F0B93FCCF3869577956795B395D9F7C7
:100E10003EF490958095709561957F4F8F4F9F4FD1
:100E20000895E89409C097FB3EF4909580957095DD
:100E300061957F4F8F4F9F4F9923A9F0F92F96E926
:100E4000BB279395F695879577956795B795F1119B
:100E5000F8CFFAF4BB0F11F460FF1BC06F5F7F4F38
:100E60008F4F9F4F16C0882311F096E911C077234A
:100E700021F09EE8872F762F05C0662371F096E853
:100E8000862F70E060E02AF09A95660F771F881F22
:100E9000DAF7880F9695879597F90895990F0008C6
:100EA000550FAA0BE0E8FEEF16161706E807F9073C
:100EB000C0F012161306E407F50798F0621B730BD7
:100EC000840B950B39F40A2661F0232B242B252B58
:100ED00021F408950A2609F4A140A6958FEF811DFB
:100EE000811D089597F99F6780E870E060E008959C
:100EF0009FEF80EC089500240A9416161706180632
:100F00000906089500240A9412161306140605060D
:100F10000895092E0394000C11F4882352F0BB0F9E
:100F200040F4BF2B11F460FF04C06F5F7F4F8F4F01
:100F30009F4F089557FD9058440F551F59F05F3F3C
:100F400071F04795880F97FB991F61F09F3F79F0EB
:100F500087950895121613061406551FF2CF46956D
:100F6000F1DF08C0161617061806991FF1CF8695EF
:100F70007105610508940895E894BB2766277727D3
:100F8000CB0197F908950E944E0708F48FEF08955A
:100F90000E94DB070C9489070E947B0738F00E94AF
:100FA000820720F0952311F00C9472070C947807B7
:100FB00011240C94BD070E949A0770F3959FC1F30A
:100FC000950F50E0551F629FF001729FBB27F00DF7
:100FD000B11D639FAA27F00DB11DAA1F649F66274C
:100FE000B00DA11D661F829F2227B00DA11D621F9B
:100FF000739FB00DA11D621F839FA00D611D221F55
:10100000749F3327A00D611D231F849F600D211D38
:10101000822F762F6A2F11249F5750409AF0F1F0BB
:1010200088234AF0EE0FFF1FBB1F661F771F881F24
:1010300091505040A9F79E3F510580F00C947207E3
:101040000C94BD075F3FE4F3983ED4F38695779503
:101050006795B795F795E7959F5FC1F7FE2B880FCA
:10106000911D9695879597F908950E944E07880BD4
:10107000990B0895EE0FFF1F0590F491E02D099450
:10108000F894FFCF0000000023028301B0018B021F
:10109000E101BF01D3010D0A006E616E00696E6649
:0610A000006F76660000FF
:107E0000112484B714BE81FFF0D085E080938100F7
:107E100082E08093C00088E18093C10086E0809377
:107E2000C20080E18093C4008EE0C9D0259A86E02C
:107E300020E33CEF91E0309385002093840096BBD3
:107E4000B09BFECF1D9AA8958150A9F7CC24DD24C4
:107E500088248394B5E0AB2EA1E19A2EF3E0BF2EE7
:107E6000A2D0813461F49FD0082FAFD0023811F036
:107E7000013811F484E001C083E08DD089C08234E0
:107E800011F484E103C0853419F485E0A6D080C0E4
:107E9000853579F488D0E82EFF2485D0082F10E0AE
:107EA000102F00270E291F29000F111F8ED06801E7
:107EB0006FC0863521F484E090D080E0DECF843638
:107EC00009F040C070D06FD0082F6DD080E0C81688
:107ED00080E7D80618F4F601B7BEE895C0E0D1E017
:107EE00062D089930C17E1F7F0E0CF16F0E7DF06D8
:107EF00018F0F601B7BEE89568D007B600FCFDCFD4
:107F0000A601A0E0B1E02C9130E011968C91119780
:107F100090E0982F8827822B932B1296FA010C0160
:107F200087BEE89511244E5F5F4FF1E0A038BF0790
:107F300051F7F601A7BEE89507B600FCFDCF97BE46
:107F4000E89526C08437B1F42ED02DD0F82E2BD052
:107F50003CD0F601EF2C8F010F5F1F4F84911BD097
:107F6000EA94F801C1F70894C11CD11CFA94CF0C13
:107F7000D11C0EC0853739F428D08EE10CD085E9AC
:107F80000AD08FE07ACF813511F488E018D01DD067
:107F900080E101D065CF982F8091C00085FFFCCF94
:107FA0009093C60008958091C00087FFFCCF809118
:107FB000C00084FD01C0A8958091C6000895E0E648
:107FC000F0E098E1908380830895EDDF803219F02E
:107FD00088E0F5DFFFCF84E1DECF1F93182FE3DFCA
:107FE0001150E9F7F2DF1F91089580E0E8DFEE27F6
:047FF000FF270994CA
:027FFE00040479
:00000001FF
